{
  "contracts/AreaCalculator.sol": {
    "AreaCalculator": {
      "abi": [
        {
          "inputs": [
            {
              "internalType": "int256",
              "name": "_radius",
              "type": "int256"
            }
          ],
          "name": "circleCalculator",
          "outputs": [
            {
              "internalType": "int256",
              "name": "area",
              "type": "int256"
            }
          ],
          "stateMutability": "pure",
          "type": "function"
        },
        {
          "inputs": [
            {
              "internalType": "uint256",
              "name": "_length",
              "type": "uint256"
            },
            {
              "internalType": "uint256",
              "name": "_breadth",
              "type": "uint256"
            }
          ],
          "name": "rectangleCalculator",
          "outputs": [
            {
              "internalType": "uint256",
              "name": "area",
              "type": "uint256"
            }
          ],
          "stateMutability": "pure",
          "type": "function"
        },
        {
          "inputs": [
            {
              "internalType": "uint256",
              "name": "_length",
              "type": "uint256"
            },
            {
              "internalType": "uint256",
              "name": "_breadth",
              "type": "uint256"
            }
          ],
          "name": "squareCalculator",
          "outputs": [
            {
              "internalType": "uint256",
              "name": "area",
              "type": "uint256"
            }
          ],
          "stateMutability": "pure",
          "type": "function"
        },
        {
          "inputs": [
            {
              "internalType": "uint256",
              "name": "_base",
              "type": "uint256"
            },
            {
              "internalType": "uint256",
              "name": "_height",
              "type": "uint256"
            }
          ],
          "name": "triangleCalculator",
          "outputs": [
            {
              "internalType": "uint256",
              "name": "area",
              "type": "uint256"
            }
          ],
          "stateMutability": "pure",
          "type": "function"
        }
      ],
      "evm": {
        "bytecode": {
          "linkReferences": {},
          "object": "608060405234801561001057600080fd5b50610581806100206000396000f3fe608060405234801561001057600080fd5b506004361061004c5760003560e01c806327a7a61e146100515780632fcc765e1461008157806336ead0e1146100b157806391521fd9146100e1575b600080fd5b61006b600480360381019061006691906101fe565b610111565b604051610078919061023a565b60405180910390f35b61009b6004803603810190610096919061028b565b610175565b6040516100a891906102da565b60405180910390f35b6100cb60048036038101906100c6919061028b565b610197565b6040516100d891906102da565b60405180910390f35b6100fb60048036038101906100f6919061028b565b6101ad565b60405161010891906102da565b60405180910390f35b6000808213610155576040517f08c379a000000000000000000000000000000000000000000000000000000000815260040161014c90610378565b60405180910390fd5b600760168361016491906103c7565b61016e919061046e565b9050919050565b60006002828461018591906104d8565b61018f919061051a565b905092915050565b600081836101a591906104d8565b905092915050565b600081836101bb91906104d8565b905092915050565b600080fd5b6000819050919050565b6101db816101c8565b81146101e657600080fd5b50565b6000813590506101f8816101d2565b92915050565b600060208284031215610214576102136101c3565b5b6000610222848285016101e9565b91505092915050565b610234816101c8565b82525050565b600060208201905061024f600083018461022b565b92915050565b6000819050919050565b61026881610255565b811461027357600080fd5b50565b6000813590506102858161025f565b92915050565b600080604083850312156102a2576102a16101c3565b5b60006102b085828601610276565b92505060206102c185828601610276565b9150509250929050565b6102d481610255565b82525050565b60006020820190506102ef60008301846102cb565b92915050565b600082825260208201905092915050565b7f526164697573206d757374206265206120706f73697469766520696e7465676560008201527f7221000000000000000000000000000000000000000000000000000000000000602082015250565b60006103626022836102f5565b915061036d82610306565b604082019050919050565b6000602082019050818103600083015261039181610355565b9050919050565b7f4e487b7100000000000000000000000000000000000000000000000000000000600052601160045260246000fd5b60006103d2826101c8565b91506103dd836101c8565b92508282026103eb816101c8565b91507f8000000000000000000000000000000000000000000000000000000000000000841460008412161561042357610422610398565b5b828205841483151761043857610437610398565b5b5092915050565b7f4e487b7100000000000000000000000000000000000000000000000000000000600052601260045260246000fd5b6000610479826101c8565b9150610484836101c8565b9250826104945761049361043f565b5b600160000383147f8000000000000000000000000000000000000000000000000000000000000000831416156104cd576104cc610398565b5b828205905092915050565b60006104e382610255565b91506104ee83610255565b92508282026104fc81610255565b9150828204841483151761051357610512610398565b5b5092915050565b600061052582610255565b915061053083610255565b9250826105405761053f61043f565b5b82820490509291505056fea264697066735822122056fbd6f106ba890035bcc9ab68b8369c9115f93696c961539bbcbcd3acad23f864736f6c63430008180033",
          "opcodes": "PUSH1 0x80 PUSH1 0x40 MSTORE CALLVALUE DUP1 ISZERO PUSH2 0x10 JUMPI PUSH1 0x0 DUP1 REVERT JUMPDEST POP PUSH2 0x581 DUP1 PUSH2 0x20 PUSH1 0x0 CODECOPY PUSH1 0x0 RETURN INVALID PUSH1 0x80 PUSH1 0x40 MSTORE CALLVALUE DUP1 ISZERO PUSH2 0x10 JUMPI PUSH1 0x0 DUP1 REVERT JUMPDEST POP PUSH1 0x4 CALLDATASIZE LT PUSH2 0x4C JUMPI PUSH1 0x0 CALLDATALOAD PUSH1 0xE0 SHR DUP1 PUSH4 0x27A7A61E EQ PUSH2 0x51 JUMPI DUP1 PUSH4 0x2FCC765E EQ PUSH2 0x81 JUMPI DUP1 PUSH4 0x36EAD0E1 EQ PUSH2 0xB1 JUMPI DUP1 PUSH4 0x91521FD9 EQ PUSH2 0xE1 JUMPI JUMPDEST PUSH1 0x0 DUP1 REVERT JUMPDEST PUSH2 0x6B PUSH1 0x4 DUP1 CALLDATASIZE SUB DUP2 ADD SWAP1 PUSH2 0x66 SWAP2 SWAP1 PUSH2 0x1FE JUMP JUMPDEST PUSH2 0x111 JUMP JUMPDEST PUSH1 0x40 MLOAD PUSH2 0x78 SWAP2 SWAP1 PUSH2 0x23A JUMP JUMPDEST PUSH1 0x40 MLOAD DUP1 SWAP2 SUB SWAP1 RETURN JUMPDEST PUSH2 0x9B PUSH1 0x4 DUP1 CALLDATASIZE SUB DUP2 ADD SWAP1 PUSH2 0x96 SWAP2 SWAP1 PUSH2 0x28B JUMP JUMPDEST PUSH2 0x175 JUMP JUMPDEST PUSH1 0x40 MLOAD PUSH2 0xA8 SWAP2 SWAP1 PUSH2 0x2DA JUMP JUMPDEST PUSH1 0x40 MLOAD DUP1 SWAP2 SUB SWAP1 RETURN JUMPDEST PUSH2 0xCB PUSH1 0x4 DUP1 CALLDATASIZE SUB DUP2 ADD SWAP1 PUSH2 0xC6 SWAP2 SWAP1 PUSH2 0x28B JUMP JUMPDEST PUSH2 0x197 JUMP JUMPDEST PUSH1 0x40 MLOAD PUSH2 0xD8 SWAP2 SWAP1 PUSH2 0x2DA JUMP JUMPDEST PUSH1 0x40 MLOAD DUP1 SWAP2 SUB SWAP1 RETURN JUMPDEST PUSH2 0xFB PUSH1 0x4 DUP1 CALLDATASIZE SUB DUP2 ADD SWAP1 PUSH2 0xF6 SWAP2 SWAP1 PUSH2 0x28B JUMP JUMPDEST PUSH2 0x1AD JUMP JUMPDEST PUSH1 0x40 MLOAD PUSH2 0x108 SWAP2 SWAP1 PUSH2 0x2DA JUMP JUMPDEST PUSH1 0x40 MLOAD DUP1 SWAP2 SUB SWAP1 RETURN JUMPDEST PUSH1 0x0 DUP1 DUP3 SGT PUSH2 0x155 JUMPI PUSH1 0x40 MLOAD PUSH32 0x8C379A000000000000000000000000000000000000000000000000000000000 DUP2 MSTORE PUSH1 0x4 ADD PUSH2 0x14C SWAP1 PUSH2 0x378 JUMP JUMPDEST PUSH1 0x40 MLOAD DUP1 SWAP2 SUB SWAP1 REVERT JUMPDEST PUSH1 0x7 PUSH1 0x16 DUP4 PUSH2 0x164 SWAP2 SWAP1 PUSH2 0x3C7 JUMP JUMPDEST PUSH2 0x16E SWAP2 SWAP1 PUSH2 0x46E JUMP JUMPDEST SWAP1 POP SWAP2 SWAP1 POP JUMP JUMPDEST PUSH1 0x0 PUSH1 0x2 DUP3 DUP5 PUSH2 0x185 SWAP2 SWAP1 PUSH2 0x4D8 JUMP JUMPDEST PUSH2 0x18F SWAP2 SWAP1 PUSH2 0x51A JUMP JUMPDEST SWAP1 POP SWAP3 SWAP2 POP POP JUMP JUMPDEST PUSH1 0x0 DUP2 DUP4 PUSH2 0x1A5 SWAP2 SWAP1 PUSH2 0x4D8 JUMP JUMPDEST SWAP1 POP SWAP3 SWAP2 POP POP JUMP JUMPDEST PUSH1 0x0 DUP2 DUP4 PUSH2 0x1BB SWAP2 SWAP1 PUSH2 0x4D8 JUMP JUMPDEST SWAP1 POP SWAP3 SWAP2 POP POP JUMP JUMPDEST PUSH1 0x0 DUP1 REVERT JUMPDEST PUSH1 0x0 DUP2 SWAP1 POP SWAP2 SWAP1 POP JUMP JUMPDEST PUSH2 0x1DB DUP2 PUSH2 0x1C8 JUMP JUMPDEST DUP2 EQ PUSH2 0x1E6 JUMPI PUSH1 0x0 DUP1 REVERT JUMPDEST POP JUMP JUMPDEST PUSH1 0x0 DUP2 CALLDATALOAD SWAP1 POP PUSH2 0x1F8 DUP2 PUSH2 0x1D2 JUMP JUMPDEST SWAP3 SWAP2 POP POP JUMP JUMPDEST PUSH1 0x0 PUSH1 0x20 DUP3 DUP5 SUB SLT ISZERO PUSH2 0x214 JUMPI PUSH2 0x213 PUSH2 0x1C3 JUMP JUMPDEST JUMPDEST PUSH1 0x0 PUSH2 0x222 DUP5 DUP3 DUP6 ADD PUSH2 0x1E9 JUMP JUMPDEST SWAP2 POP POP SWAP3 SWAP2 POP POP JUMP JUMPDEST PUSH2 0x234 DUP2 PUSH2 0x1C8 JUMP JUMPDEST DUP3 MSTORE POP POP JUMP JUMPDEST PUSH1 0x0 PUSH1 0x20 DUP3 ADD SWAP1 POP PUSH2 0x24F PUSH1 0x0 DUP4 ADD DUP5 PUSH2 0x22B JUMP JUMPDEST SWAP3 SWAP2 POP POP JUMP JUMPDEST PUSH1 0x0 DUP2 SWAP1 POP SWAP2 SWAP1 POP JUMP JUMPDEST PUSH2 0x268 DUP2 PUSH2 0x255 JUMP JUMPDEST DUP2 EQ PUSH2 0x273 JUMPI PUSH1 0x0 DUP1 REVERT JUMPDEST POP JUMP JUMPDEST PUSH1 0x0 DUP2 CALLDATALOAD SWAP1 POP PUSH2 0x285 DUP2 PUSH2 0x25F JUMP JUMPDEST SWAP3 SWAP2 POP POP JUMP JUMPDEST PUSH1 0x0 DUP1 PUSH1 0x40 DUP4 DUP6 SUB SLT ISZERO PUSH2 0x2A2 JUMPI PUSH2 0x2A1 PUSH2 0x1C3 JUMP JUMPDEST JUMPDEST PUSH1 0x0 PUSH2 0x2B0 DUP6 DUP3 DUP7 ADD PUSH2 0x276 JUMP JUMPDEST SWAP3 POP POP PUSH1 0x20 PUSH2 0x2C1 DUP6 DUP3 DUP7 ADD PUSH2 0x276 JUMP JUMPDEST SWAP2 POP POP SWAP3 POP SWAP3 SWAP1 POP JUMP JUMPDEST PUSH2 0x2D4 DUP2 PUSH2 0x255 JUMP JUMPDEST DUP3 MSTORE POP POP JUMP JUMPDEST PUSH1 0x0 PUSH1 0x20 DUP3 ADD SWAP1 POP PUSH2 0x2EF PUSH1 0x0 DUP4 ADD DUP5 PUSH2 0x2CB JUMP JUMPDEST SWAP3 SWAP2 POP POP JUMP JUMPDEST PUSH1 0x0 DUP3 DUP3 MSTORE PUSH1 0x20 DUP3 ADD SWAP1 POP SWAP3 SWAP2 POP POP JUMP JUMPDEST PUSH32 0x526164697573206D757374206265206120706F73697469766520696E74656765 PUSH1 0x0 DUP3 ADD MSTORE PUSH32 0x7221000000000000000000000000000000000000000000000000000000000000 PUSH1 0x20 DUP3 ADD MSTORE POP JUMP JUMPDEST PUSH1 0x0 PUSH2 0x362 PUSH1 0x22 DUP4 PUSH2 0x2F5 JUMP JUMPDEST SWAP2 POP PUSH2 0x36D DUP3 PUSH2 0x306 JUMP JUMPDEST PUSH1 0x40 DUP3 ADD SWAP1 POP SWAP2 SWAP1 POP JUMP JUMPDEST PUSH1 0x0 PUSH1 0x20 DUP3 ADD SWAP1 POP DUP2 DUP2 SUB PUSH1 0x0 DUP4 ADD MSTORE PUSH2 0x391 DUP2 PUSH2 0x355 JUMP JUMPDEST SWAP1 POP SWAP2 SWAP1 POP JUMP JUMPDEST PUSH32 0x4E487B7100000000000000000000000000000000000000000000000000000000 PUSH1 0x0 MSTORE PUSH1 0x11 PUSH1 0x4 MSTORE PUSH1 0x24 PUSH1 0x0 REVERT JUMPDEST PUSH1 0x0 PUSH2 0x3D2 DUP3 PUSH2 0x1C8 JUMP JUMPDEST SWAP2 POP PUSH2 0x3DD DUP4 PUSH2 0x1C8 JUMP JUMPDEST SWAP3 POP DUP3 DUP3 MUL PUSH2 0x3EB DUP2 PUSH2 0x1C8 JUMP JUMPDEST SWAP2 POP PUSH32 0x8000000000000000000000000000000000000000000000000000000000000000 DUP5 EQ PUSH1 0x0 DUP5 SLT AND ISZERO PUSH2 0x423 JUMPI PUSH2 0x422 PUSH2 0x398 JUMP JUMPDEST JUMPDEST DUP3 DUP3 SDIV DUP5 EQ DUP4 ISZERO OR PUSH2 0x438 JUMPI PUSH2 0x437 PUSH2 0x398 JUMP JUMPDEST JUMPDEST POP SWAP3 SWAP2 POP POP JUMP JUMPDEST PUSH32 0x4E487B7100000000000000000000000000000000000000000000000000000000 PUSH1 0x0 MSTORE PUSH1 0x12 PUSH1 0x4 MSTORE PUSH1 0x24 PUSH1 0x0 REVERT JUMPDEST PUSH1 0x0 PUSH2 0x479 DUP3 PUSH2 0x1C8 JUMP JUMPDEST SWAP2 POP PUSH2 0x484 DUP4 PUSH2 0x1C8 JUMP JUMPDEST SWAP3 POP DUP3 PUSH2 0x494 JUMPI PUSH2 0x493 PUSH2 0x43F JUMP JUMPDEST JUMPDEST PUSH1 0x1 PUSH1 0x0 SUB DUP4 EQ PUSH32 0x8000000000000000000000000000000000000000000000000000000000000000 DUP4 EQ AND ISZERO PUSH2 0x4CD JUMPI PUSH2 0x4CC PUSH2 0x398 JUMP JUMPDEST JUMPDEST DUP3 DUP3 SDIV SWAP1 POP SWAP3 SWAP2 POP POP JUMP JUMPDEST PUSH1 0x0 PUSH2 0x4E3 DUP3 PUSH2 0x255 JUMP JUMPDEST SWAP2 POP PUSH2 0x4EE DUP4 PUSH2 0x255 JUMP JUMPDEST SWAP3 POP DUP3 DUP3 MUL PUSH2 0x4FC DUP2 PUSH2 0x255 JUMP JUMPDEST SWAP2 POP DUP3 DUP3 DIV DUP5 EQ DUP4 ISZERO OR PUSH2 0x513 JUMPI PUSH2 0x512 PUSH2 0x398 JUMP JUMPDEST JUMPDEST POP SWAP3 SWAP2 POP POP JUMP JUMPDEST PUSH1 0x0 PUSH2 0x525 DUP3 PUSH2 0x255 JUMP JUMPDEST SWAP2 POP PUSH2 0x530 DUP4 PUSH2 0x255 JUMP JUMPDEST SWAP3 POP DUP3 PUSH2 0x540 JUMPI PUSH2 0x53F PUSH2 0x43F JUMP JUMPDEST JUMPDEST DUP3 DUP3 DIV SWAP1 POP SWAP3 SWAP2 POP POP JUMP INVALID LOG2 PUSH5 0x6970667358 0x22 SLT KECCAK256 JUMP 0xFB 0xD6 CALL MOD 0xBA DUP10 STOP CALLDATALOAD 0xBC 0xC9 0xAB PUSH9 0xB8369C9115F93696C9 PUSH2 0x539B 0xBC 0xBC 0xD3 0xAC 0xAD 0x23 0xF8 PUSH5 0x736F6C6343 STOP ADDMOD XOR STOP CALLER "
        },
        "methodIdentifiers": {
          "circleCalculator(int256)": "27a7a61e",
          "rectangleCalculator(uint256,uint256)": "91521fd9",
          "squareCalculator(uint256,uint256)": "36ead0e1",
          "triangleCalculator(uint256,uint256)": "2fcc765e"
        }
      }
    }
  }
}